:100000000C9461030C947E030C947E030C947E0389
:100010000C947E030C947E030C947E030C947E035C
:100020000C947E030C947E030C947E030C9480034A
:100030000C947E030C947E030C947E030C947E033C
:100040000C947E030C947E030C94CB170C947E03CB
:100050000C947E030C947E030C947E030C947E031C
:100060000C947E030C947E0307634236B79BD8A79B
:100070001A39685618AEBAAB558C1D3CB7CC5763CD
:10008000BD6DEDFD753EF6177231BF000000803F7B
:1000900008000000BE922449123EABAAAA2ABECD97
:1000A000CCCC4C3E00000080BEABAAAAAA3E000009
:1000B0000000BF000000803F000000000008417801
:1000C000D3BB4387D1133D190E3CC3BD4282AD2B38
:1000D0003E68EC8276BED98FE1A93E4C80EFFFBE30
:1000E00001C4FF7F3F0000000000667265653A2092
:1000F000202000666F726D61743A200077722E7056
:10010000722E3A2000636F70793A202020004D4211
:100110000A0073697A653A20202000646174653AA8
:100120002020200073657269616C3A20307800727B
:1001300065763A202020200070726F643A202020DB
:10014000006F656D3A20202020006D616E75663A63
:1001500020203078006F70656E696E6720726F6F57
:1001600074206469726563746F7279206661696C6A
:1001700065640A006F70656E696E672066696C65FC
:1001800073797374656D206661696C65640A006FCC
:1001900070656E696E6720706172746974696F6EE4
:1001A000206661696C65640A004D4D432F534420FD
:1001B000696E697469616C697A6174696F6E2066D1
:1001C00061696C65640A0000000000003E5B4F5BE3
:1001D0003E3E6B4F6B3E1C3E7C3E1C183C7E3C18EA
:1001E0001C577D571C1C5E7F5E1C00183C1800FFCE
:1001F000E7C3E7FF0018241800FFE7DBE7FF3048FC
:100200003A060E2629792926407F050507407F05F5
:10021000253F5A3CE73C5A7F3E1C1C08081C1C3EEC
:100220007F14227F22145F5F005F5F06097F017FDA
:10023000006689956A606060606094A2FFA294087D
:10024000047E040810207E201008082A1C08081CC0
:100250002A08081E101010100C1E0C1E0C30383E00
:100260003830060E3E0E06000000000000005F0061
:10027000000007000700147F147F14242A7F2A122D
:100280002313086462364956205000080703000013
:100290001C2241000041221C002A1C7F1C2A080845
:1002A0003E08080080703000080808080800006058
:1002B000600020100804023E5149453E00427F4044
:1002C0000072494949462141494D331814127F10A3
:1002D00027454545393C4A494931412111090736ED
:1002E00049494936464949291E000014000000408A
:1002F0003400000008142241141414141400412284
:10030000140802015909063E415D594E7C12111232
:100310007C7F494949363E414141227F4141413E2E
:100320007F494949417F090909013E414151737F94
:100330000808087F00417F41002040413F017F08BD
:100340001422417F404040407F021C027F7F04080E
:10035000107F3E4141413E7F090909063E4151213E
:100360005E7F09192946264949493203017F010365
:100370003F4040403F1F2040201F3F4038403F63E8
:100380001408146303047804036159494D43007F42
:100390004141410204081020004141417F04020113
:1003A00002044040404040000307080020545478B5
:1003B000407F284444383844444428384444287F03
:1003C000385454541800087E090218A4A49C787F5D
:1003D0000804047800447D40002040403D007F1028
:1003E00028440000417F40007C047804787C0804A5
:1003F00004783844444438FC182424181824241859
:10040000FC7C08040408485454542404043F442445
:100410003C4040207C1C2040201C3C4030403C4460
:10042000281028444C9090907C4464544C4400081C
:10043000364100000077000000413608000201024A
:1004400004023C2623263C1EA1A161123A40402012
:100450007A3854545559215555794122545478428B
:10046000215554784020545579400C1E527212394F
:100470005555555939545454593955545458000008
:10048000457C410002457D420001457C407D1211C2
:10049000127DF0282528F07C545545002054547CCA
:1004A000547C0A097F4932494949323A4444443A22
:1004B000324A4848303A4141217A3A424020780055
:1004C0009DA0A07D3D4242423D3D4040403D3C24F8
:1004D000FF2424487E4943662B2FFC2F2BFF09293C
:1004E000F620C0887E090320545479410000447DE1
:1004F000413048484A32384040227A007A0A0A722B
:100500007D0D19317D2629292F28262929292630D4
:10051000484D4020380808080808080808382F10F7
:10052000C8ACBA2F102834FA00007B000008142A47
:10053000142222142A1408AA005500AAAA55AA5562
:10054000AA000000FF00101010FF00141414FF0098
:100550001010FF00FF1010F010F0141414FC001421
:1005600014F700FF0000FF00FF1414F404FC14143F
:1005700017101F10101F101F1414141F001010103C
:10058000F0000000001F101010101F10101010F0CD
:1005900010000000FF101010101010101010FF10AD
:1005A000000000FF140000FF00FF00001F101700F4
:1005B00000FC04F414141710171414F404F40000CD
:1005C000FF00F714141414141414F700F71414147F
:1005D000171410101F101F141414F4141010F0101E
:1005E000F000001F101F0000001F14000000FC148A
:1005F0000000F010F01010FF10FF141414FF14107E
:1006000010101F00000000F010FFFFFFFFFFF0F0D0
:10061000F0F0F0FFFFFF0000000000FFFF0F0F0FE2
:100620000F0F3844443844FC4A4A4A347E020206DA
:1006300006027E027E0263554941633844443C040D
:10064000407E201E2006027E020299A5E7A5991C85
:100650002A492A1C4C7201724C304A4D4D303048A8
:10066000784830BC625A463D3E494949007E010106
:10067000017E2A2A2A2A2A44445F444440514A449B
:100680004040444A51400000FF0103E080FF000069
:1006900008086B6B083612362436060F090F060061
:1006A0000018180000001010003040FF0101001F6A
:1006B00001011E00191D1712003C3C3C3C000000CB
:1006C000000011241FBECFEFD8E0DEBFCDBF12E087
:1006D000A0E0B1E0ECE8FFE602C005900D92A03981
:1006E000B107D9F726E0A0E9B2E001C01D92A0321F
:1006F000B207E1F70E94B42C0C94B5370C940000BB
:100700001F921FB61F9211248F939F938091D6053D
:100710008F5F8093D6059091E905992319F0915048
:100720009093E9058A3039F48091F6051092D60548
:100730008F5F8093F6058091F6058A3051F48091A1
:10074000F7051092F6058F5F8093F70581E080939F
:1007500000018091F7058C3339F41092F7058091F0
:10076000EE058F5F8093EE059F918F911F901FBEC6
:100770001F901895CF93C82F0E94D8170E94021877
:10078000883049F58EEE0E94E4170E9402188831E5
:1007900021F58C2F0E94E4170E940218C3E08832D2
:1007A000B9F40E94D8170E940218C4E0803181F485
:1007B0008FEE0E94E4170E940218C5E0803441F4D5
:1007C0000E94F817C82F0E94E01780EA8A95F1F777
:1007D0008C2FCF910895CBE7FBCFC2E0F9CFCF9319
:1007E000DF93D82FC62F0E94D8170E940218883096
:1007F000F1F48EEE0E94E4170E9402188831C9F4C9
:100800008D2F0E94E4170E9402188832A1F48C2FC9
:100810000E94E4170E940218883279F40E94E017BF
:1008200080EA8A95F1F780E0DF91CF9108958BE01F
:10083000FBCF86E1F9CF81E2F7CF8CE2F5CF0F93C2
:100840001F93CF93DF93CDB7DEB7A6970FB6F8947B
:10085000DEBF0FBECDBF1092B90510E1812F0E94FF
:10086000BA03E091B905F0E0EE0FFF1F21E030E0A0
:100870002C0F3D1FE20FF31F90E0918380838FE3E5
:100880009CE90197F1F700C000001F5F8091B90556
:100890008F5F8093B905823108F38B819C8120E0C2
:1008A0003981282B392B45E0369527954A95E1F774
:1008B0003093CC052093CB05982F882788279F70ED
:1008C0002D813E81822B932B93FDA0C09093F50543
:1008D0008093F4058B859C85B0E0A0E04F8158851E
:1008E00070E060E0762F652F542F442709851A8524
:1008F00030E020E0402B512B622B732B762F652F9D
:10090000542F4427482B592B6A2B7B2B762F652F8E
:10091000542F4427FCE07595679557954795FA95B0
:10092000D1F74093DF055093E0056093E1057093A4
:10093000E205BA2FA92F982F88274D855E8570E094
:1009400060E0842B952BA62BB72BBA2FA92F982FBD
:1009500088274F85588970E060E0842B952BA62B63
:10096000B72B2CE0880F991FAA1FBB1F2A95D1F720
:100970003CE0B595A795979587953A95D1F78093E3
:10098000B5059093B605A093B705B093B80580E080
:1009900099892B893C89822B932B9093AF05809367
:1009A000AE0580E09D892F89388D822B932B909303
:1009B000CE058093CD0580E0998D2B8D3C8D822BCB
:1009C000932B9093D3058093D20580E09D8D2F8D3E
:1009D00038A1822B932B9093E8058093E70580E064
:1009E00099A12BA13CA1822B932B9093C8058093B6
:1009F000C70590E080E0A6960FB6F894DEBF0FBE64
:100A0000CDBFDF91CF911F910F91089590515ECF8F
:100A100069E98CE00E94EF032FEF80E792E021501C
:100A200080409040E1F700C00000089581E091E02F
:100A300090931D0680931C060E946C0B90E080E052
:100A40000E94860C2FEF81EE94E021508040904070
:100A5000E1F700C0000083E00E94C00D8FE39FE13A
:100A60000197F1F700C0000070E060E080EE9FEFBA
:100A70000E947E1470E060E090E080E00E947514B7
:100A800082E00C948714EF92FF920F931F93CF9301
:100A9000DF93C82F11E080E4F82E00E890E1E92E02
:100AA00088E00E94BA03D82F0E941F04C33009F4C3
:100AB00064C010F5C130B9F1C23009F449C065EA2B
:100AC0008EE00E94EF0366E98FE00E94EF0362E090
:100AD00082E60E94EF0360E08EE00E94EF0360E098
:100AE0008FE00E94EF03D7FFDBCFDF91CF911F9103
:100AF0000F91FF90EF900895C43009F767EF86E0FB
:100B00000E94EF0367ED87E00E94EF036CE089E04D
:100B10000E94EF0367E088E00E94EF030093DD0589
:100B20000093AD05CCCF60E086E00E94EF0360E863
:100B300087E00E94EF0360E089E00E94EF0367E036
:100B400088E00E94EF03C093DD05C093AD05B7CFE9
:100B500064E186E00E94EF0360E987E00E94EF0312
:100B600064E089E00E94EF0367E088E00E94EF0301
:100B70001093DD05E092AD05A2CF66E286E00E940B
:100B8000EF0360EA87E00E94EF0364E089E00E94DF
:100B9000EF0367E088E00E94EF031093DD05F09219
:100BA000AD058DCFCF93DF9300D000D0CDB7DEB7AA
:100BB00083E00E94BA03EEEAF2E0808384E00E94C0
:100BC000BA038093AF0285E00E94BA03282F809376
:100BD000B002EEEAF2E08081918198278927982778
:100BE000B0E0A0E0BA2FA92F982F8827822BBA2F28
:100BF000A92F982F8827292F3A2F4B2F552747FDAC
:100C00005A95CA01B9010F900F900F900F90DF9184
:100C1000CF910895CF92DF92EF92FF920F931F939F
:100C2000CF93DF9300D000D000D0CDB7DEB789835B
:100C300083E00E94BA038093AE0284E00E94BA036C
:100C40008093AF0285E00E94BA038093B00289814D
:100C50000E94D2052981C12CE0EEDE2EE3E0EE2ECB
:100C6000F12C203121F108F0A2C0C12CD12C58E385
:100C7000E52EF12C2430D9F090F4C12CD12C48E091
:100C8000E42EF12C213099F0C12CD12CB8E1EB2EBF
:100C9000F12C223061F0C12CD12C760108C03981B1
:100CA000C12CD12CA8E7EA2EF12C3830A1F70E94F4
:100CB00066318B018E839D83C701B6010E94663128
:100CC0009B01AC0109831A838E818B838D818C8378
:100CD00069817A818B819C810E94BC30D62EE72E5F
:100CE000F82E9D838091F4059091F5059C01990F54
:100CF000440B550B29833A834B835C83CA01B901AA
:100D00000E9466319B01AC01D982EA82FB828D810F
:100D10008C8369817A818B819C810E94F231D62EED
:100D2000E72EF82E9D838091CB059091CC059C01F8
:100D3000990F440B550B29833A834B835C83CA017B
:100D4000B9010E9466319B01AC01D982EA82FB8223
:100D50008D818C8369817A818B819C810E94503046
:100D600020E030E048EC52E469837A838B839C83F3
:100D700069817A818B819C810E94F23169837A83B7
:100D80008B839C8369817A818B819C810E942E3127
:100D900026960FB6F894DEBF0FBECDBFDF91CF9180
:100DA0001F910F91FF90EF90DF90CF9008954981B0
:100DB000C12C30EED32E3FE0E32EF12C403409F469
:100DC00076CFC12C20EED22E2FE1E22EF12C40382E
:100DD00009F46DCFC12CF0EEDF2EF7E0EF2EF12CF1
:100DE000403209F464CF57CF4F925F926F927F9257
:100DF0008F929F92AF92BF92CF92DF92EF92FF922B
:100E00000F931F93CF93DF9300D000D000D0CDB7C6
:100E1000DEB78E836D8383E00E94BA038093AE02B7
:100E200084E00E94BA038093AF0285E00E94BA0377
:100E3000282F8093B0028091AE029091AF02982744
:100E400089279827B0E0A0E0BA2FA92F982F8827EC
:100E5000822BBA2FA92F982F8827292F3A2F4B2F73
:100E6000552747FD5A9529833A834B835C833E81FE
:100E7000C12C90EED92E93E0E92EF12C303121F1E6
:100E800008F0DEC1C12CD12C88E3E82EF12C3430DF
:100E9000D9F090F4C12CD12C08E0E02EF12C3130A7
:100EA00099F0C12CD12C48E1E42EF12C323061F0C4
:100EB000C12CD12C760108C04E81C12CD12C38E731
:100EC000E32EF12C4830A1F769817A818B819C81D6
:100ED0000E946631B62E072F182F9E83C701B601D8
:100EE0000E9466319B01AC01B9820A831B838E810B
:100EF0008C8369817A818B819C810E94BC30B62E63
:100F0000072F182F9E8380E00E94BA038093AE02C1
:100F100081E00E94BA038093AF0282E00E94BA038C
:100F20008093B0024091AE025091AF025427452702
:100F3000542770E060E0762F652F542F4427482B0C
:100F4000762F652F542F4427BB2777FDBA95A72FFF
:100F5000962F852F89839A83AB83BC839D819031A3
:100F600009F4A4C108F093C1943009F4A6C108F0B3
:100F700084C1913009F4A7C1923029F4C12CD12C3D
:100F800078E1E72EF12C69817A818B819C810E9426
:100F900066314B01A82E9D83C701B6010E946631C0
:100FA0009B01AC0189829A82AB828D818C8369819D
:100FB0007A818B819C810E94BC30D62EE72EF82E40
:100FC0009D838091C7059091C8059C01990F440BA2
:100FD000550B29833A834B835C83CA01B9010E9474
:100FE00066312D2D3E2D4F2D5D8169837A838B8354
:100FF0009C8369817A818B819C810E94F2314B01B3
:10100000A82EC92E8091D2059091D3059C01990FED
:10101000440B550B29833A834B835C83CA01B90186
:101020000E9466319B01AC0189829A82AB82CC829C
:1010300069817A818B819C810E9450302D2D3E2DBB
:101040004F2D5D8169837A838B839C8369817A814B
:101050008B819C810E94F2314B01A82EC92E609198
:10106000B5057091B6058091B7059091B8050E94BD
:1010700066319B01AC0189829A82AB82CC82698104
:101080007A818B819C810E9450302D2D3E2D4F2DD9
:101090005D8169837A838B839C8369817A818B816B
:1010A0009C810E94F2314B01A82EC92E6091DF0570
:1010B0007091E0058091E1059091E2050E94663112
:1010C0009B01AC0189829A82AB82CC8269817A8150
:1010D0008B819C810E9450304B01A82EC92E80919B
:1010E000AE059091AF059C01990F440B550B2983D8
:1010F0003A834B835C83CA01B9010E9466312B2D70
:10110000302F412F5E8169837A838B839C83698131
:101110007A818B819C810E94F2319B01AC01898292
:101120009A82AB82CC8269817A818B819C810E9478
:1011300050304B01A82EC92E8091E7059091E8050B
:101140009C01990F440B550B29833A834B835C8395
:10115000CA01B9010E9466312D2D3E2D4F2D5D81B2
:1011600069837A838B839C8369817A818B819C815B
:101170000E94F2312B013C018091CD059091CE056A
:101180009C01990F440B550B29833A834B835C8355
:10119000CA01B9010E9466319B01AC0149825A82A1
:1011A0006B827C8269817A818B819C810E94503024
:1011B0002B013C012D2D3E2D4F2D5D81B9820A83DF
:1011C0001B838E818C8369817A818B819C810E94B3
:1011D000F2319B01AC0149825A826B827C82698127
:1011E0007A818B819C810E94F2319B01AC018982C2
:1011F0009A82AB82CC8269817A818B819C810E94A8
:10120000503069837A838B839C8369817A818B8157
:101210009C8126960FB6F894DEBF0FBECDBFDF913E
:10122000CF911F910F91FF90EF90DF90CF90BF90E3
:10123000AF909F908F907F906F905F904F900895A8
:101240005E81C12C10EED12E1FE0E12EF12C503426
:1012500009F43ACEC12CB0EEDB2EBFE1EB2EF12C1F
:10126000503809F431CEC12C20EED22E27E0E22EE8
:10127000F12C503209F428CE1BCEAD81A83009F0F4
:1012800082CEC12CD12C68E7E62EF12C7CCEBD811C
:10129000B034F9F0B03821F1B03209F074CEC12C7D
:1012A00050EED52E57E0E52EF12C6DCEC12C40EE40
:1012B000D42E43E0E42EF12C66CEC12CD12C38E3A1
:1012C000E32EF12C60CEC12CD12C28E0E22EF12CA3
:1012D0005ACEC12C90EED92E9FE0E92EF12C53CEA0
:1012E000C12C80EED82E8FE1E82EF12C4CCE0F933E
:1012F0001F93CF93DF9300D000D000D0CDB7DEB7DF
:101300008B018E839D83B901CA010E9464319B01C8
:10131000AC0109831A838E818B838D818C836981D3
:101320007A818B819C810E94BC3027EB39EC42E4AE
:101330005EE369837A838B839C8369817A818B8165
:101340009C810E945F329B01AC0160E070E080E80C
:101350009FE30E944F3020E03AE24DE257E4698378
:101360007A838B839C8369817A818B819C810E94A3
:10137000F23120E030E048EC52E469837A838B83D9
:101380009C8369817A818B819C810E94F23169837F
:101390007A838B839C8369817A818B819C810E9473
:1013A0002E3126960FB6F894DEBF0FBECDBFDF916B
:1013B000CF911F910F910895CF93DF9300D000D06C
:1013C000CDB7DEB724E630E040E050E00E941C34A8
:1013D000C9010F900F900F900F90DF91CF9108955A
:1013E000CF93C62F24E630E040E050E00E941C344A
:1013F0008C2F94E6299F80191124CF910895909104
:101400007C00907F8F70982B90937C0080917A0065
:10141000806480937A0080917A0086FDFCCF809171
:101420007800909179000895CF93C82F70E060E024
:101430008AE590E00E94751485E291E09F938F9376
:101440000E94AA340F900F9082E491E0C63081F0A0
:1014500058F480E391E0C23059F08AE391E0C4305F
:1014600039F088E591E004C08DE491E0C830C9F717
:101470009F938F930E94AA340F900F90CF9108955D
:1014800081E00E94FF099093BB058093BA0564E157
:1014900070E08AE090E00E9475148091BB058F9304
:1014A0008091BA058F938EE591E09F938F930E9470
:1014B000AA3482E00E94FF099093BB058093BA058D
:1014C00068E270E08AE090E00E9475148091BB05AC
:1014D0008F938091BA058F9387E691E09F938F93C6
:1014E0000E94AA3470E060E08AE090E00E947514E7
:1014F00086B181709091E905892B2DB73EB7285FA1
:101500003F4F0FB6F8943EBF0FBE2DBF811108C0EC
:1015100080E791E09F938F930E94AA340F900F90E1
:1015200082E00E94FF098935924008F444C085E7B3
:1015300091E09F938F930E94AA340F900F9081E0C7
:101540000E94FF098039914008F03FC080E891E097
:101550009F938F930E94AA340F900F9082E00E9475
:10156000FF098835924030F582E00E94FF098139F9
:10157000914000F181E00E94FF0988359240D0F44B
:1015800081E00E94FF0981399140A0F0309B12C098
:101590008091E90581110EC070E060E08AE090E082
:1015A0000E9475148AE291E09F938F930E94AA345F
:1015B0000F900F90089582E00E94FF0980399140BA
:1015C00008F0BDCF8AE791E0B4CF81E00E94FF0927
:1015D0008935924018F283E891E0BACF8FEF8AB94B
:1015E0005F9A209A089584B18E6284B980E58CBD9B
:1015F0008DB581608DBD299A08958EBD0DB407FE0D
:10160000FDCF089595B19C7F95B99AE19A95F1F730
:1016100000C00E94FD0A299A0895289A95E09A959B
:10162000F1F7000029980E94FD0A299A0895DF9297
:10163000EF92FF920F931F93CF93DF93E82ED92E53
:10164000D62F172F042FF52EC22F8AE20E94020BED
:101650008D2D0E940D0B8E2D0E940D0B8F2D0E9443
:101660000D0B802F0E940D0B8BE20E94020B812F2D
:101670000E940D0B8D2F0E940D0B8C2F0E940D0BC5
:101680008C2F0E940D0B8CE2DF91CF911F910F9157
:10169000FF90EF90DF900C94020B5F9A2FEF83EC9A
:1016A00099E0215080409040E1F700C000005F9831
:1016B0002FEF83EC99E0215080409040E1F700C08B
:1016C00000005F9A2FEF83EC99E02150804090401A
:1016D000E1F700C0000008950E94EE0A0E94F30A9C
:1016E0000E944D0B81E00E94020B2FEF83ED90E3EF
:1016F000215080409040E1F700C000008BEC0E9438
:10170000020B89E30E940D0B8CE20E940D0B80E01E
:101710000E940D0B84E30E940D0B82E00E940D0BD2
:101720008FEC0E94020B80E00E940D0B81EC0E9466
:101730000D0B80E30E940D0B88EE0E94020B85E8E2
:101740000E940D0B80E00E940D0B88E70E940D0B9C
:101750008AEE0E94020B80E00E940D0B80E00E9446
:101760000D0B8DEE0E94020B84E60E940D0B83E0B0
:101770000E940D0B82E10E940D0B81E80E940D0B6F
:1017800087EF0E94020B80E20E940D0B80EC0E940A
:10179000020B83E20E940D0B81EC0E94020B80E1A0
:1017A0000E940D0B85EC0E94020B8EE30E940D0B34
:1017B00088E20E940D0B87EC0E94020B86E80E94D3
:1017C0000D0B86E30E94020B88E40E940D0B8AE356
:1017D0000E94020B85E50E940D0B81EB0E94020B1B
:1017E00080E00E940D0B88E10E940D0B86EB0E94A9
:1017F000020B88E00E940D0B82E80E940D0B87E22D
:101800000E940D0B82EF0E94020B80E00E940D0BE4
:1018100086E20E94020B81E00E940D0B80EE0E9486
:10182000020B8FE00E940D0B81E30E940D0B8BE2F7
:101830000E940D0B8CE00E940D0B8EE00E940D0BA0
:1018400088E00E940D0B8EE40E940D0B81EF0E9438
:101850000D0B87E30E940D0B87E00E940D0B80E1CA
:101860000E940D0B83E00E940D0B8EE00E940D0B79
:1018700089E00E940D0B80E00E940D0B81EE0E941A
:10188000020B80E00E940D0B8EE00E940D0B84E1A4
:101890000E940D0B83E00E940D0B81E10E940D0B55
:1018A00087E00E940D0B81E30E940D0B81EC0E94EA
:1018B0000D0B88E40E940D0B88E00E940D0B8FE059
:1018C0000E940D0B8CE00E940D0B81E30E940D0B1A
:1018D00086E30E940D0B8FE00E940D0B81E10E94B8
:1018E000020B2FEF8BED95E0215080409040E1F707
:1018F00000C0000089E20C94020BCF93C82F892FFF
:101900000E940D0B8C2FCF910C940D0BEF92FF9238
:101910000F931F93CF93DF93182F092F209113015B
:101920003091140140911501509116012150310957
:101930004150510970E060E090E080E00E94170B98
:10194000D0E0C0E08091150190911601C817D90729
:10195000B8F0DF91CF911F910F91FF90EF90089514
:10196000812F902F0E947D0C8FEFE81AF80A80914A
:10197000130190911401E816F90690F32196E2CF35
:10198000F12CE12CF4CFCF93DF93FC01D42FC52FA2
:101990008091150190911601E817F907B0F4809134
:1019A0001301909114016817790778F49B012F5F58
:1019B0003F4FAF014F5F5F4FCF010E94170B8D2F3D
:1019C0009C2FDF91CF910C947D0CDF91CF910895E6
:1019D0000F931F93CF93DF93FC01EA01122F032F84
:1019E0008091150190911601E817F90718F580917B
:1019F00013019091140168177907E0F42091130105
:101A000030911401CA010197860F971F821793071F
:101A100030F0C0911301D0911401C61BD70B9B016C
:101A2000215031092C0F3D1FAF01CF010E94170B30
:101A3000219728F4DF91CF911F910F910895812F65
:101A4000902F0E947D0CF4CF0F931F93CF93DF93C1
:101A5000FC01EA01122F032F8091150190911601CC
:101A6000E817F90718F58091130190911401681790
:101A70007907E0F42091150130911601CA01019710
:101A80008E0F9F1F8217930730F0C0911501D091E0
:101A90001601CE1BDF0BAF01415051094C0F5D1FEA
:101AA0009B01CF010E94170B219728F4DF91CF9162
:101AB0001F910F910895812F902F0E947D0CF4CFDC
:101AC000CF92DF92EF92FF920F931F93CF93DF930A
:101AD000FC017A01E9018091150190911601E81746
:101AE000F907C0F5809113019091140168177907E7
:101AF00088F52091150130911601CA0101978E0FCA
:101B00009F1F8217930730F0E0901501F0901601A7
:101B1000EE1AFF0A2091130130911401CE010197B2
:101B2000860F971F8217930730F0C0911301D09151
:101B30001401C61BD70B9B01215031092C0F3D1FEF
:101B4000AF01415051094E0D5F1DCF010E94170B8F
:101B50002097A1F4DF91CF911F910F91FF90EF900B
:101B6000DF90CF900895C8010E947D0C81E0C81AD3
:101B7000D108C114D104B9F72197EACF6701F9CF91
:101B8000CF93C82F86E30E94020BC370C23089F046
:101B9000C33001F188E4C13069F488E20E940D0B82
:101BA00080E491E0909316018093150180EF90E01E
:101BB0000BC088E80E940D0B80EF90E09093160117
:101BC0008093150180E491E09093140180931301B8
:101BD000CF91089588EEE2CF2F923F924F925F927D
:101BE0006F927F928F929F92AF92BF92CF92DF922D
:101BF000EF92FF920F931F93CF93DF9300D000D00B
:101C0000CDB7DEB78C017B014B835C83522E432E14
:101C100081E090E05C012B813C81A21AB30AC901EA
:101C20009195819591099C01220F331F3A83298355
:101C30006B817C816E0D7F1D452D542DC8010E9446
:101C4000C30CB7018B819C81681B790B452D542DEA
:101C5000C8010E94C30C452D542DB7018B819C8176
:101C6000800F911F0E94C30C452D542DB701C80150
:101C70002B813C81821B930B0E94C30CD12CC12C65
:101C80008B819C81C816D906BCF00F900F900F90E5
:101C90000F90DF91CF911F910F91FF90EF90DF9008
:101CA000CF90BF90AF909F908F907F906F905F90FC
:101CB0004F903F902F900895B7FC0DC08B819C8171
:101CC00001979C838B8329813A812E5F3F4F3A8312
:101CD0002983A20EB31E3FEFC31AD30AC601880F91
:101CE000991F0196A80EB91E38016C0C7D1C452D5C
:101CF000542D8B809C808E0C9F1CB401C3010E94CC
:101D0000C30C18012C183D08452D542DB401C101F8
:101D10000E94C30C452D542D47018B819C81881A4C
:101D2000990AB401C3010E94C30C452D542DB4017E
:101D3000C1010E94C30C47018C0C9D1C452D542DE4
:101D4000B4016B807C80600E711EC3010E94C30CC5
:101D5000452D542DB40118012B813C81221A330AE0
:101D6000C1010E94C30C47018C189D08452D542DBC
:101D7000B401C3010E94C30C452D542DB401C1010F
:101D80000E94C30C7DCF2F923F924F925F926F9231
:101D90007F928F929F92AF92BF92CF92DF92EF92FB
:101DA000FF920F931F93CF93DF936C015B01EA01C6
:101DB00081E090E04C01841A950A66247724641A25
:101DC000750A660C771CF12CE12C822F8470582E3A
:101DD000822F8270482E822F8870382E2170222EFA
:101DE000EC16FD069CF0DF91CF911F910F91FF90B3
:101DF000EF90DF90CF90BF90AF909F908F907F90AB
:101E00006F905F904F903F902F90089597FC06C081
:101E1000219782E0680E711C860C971C8FEFE81AE0
:101E2000F80AC701880F991F0196880E991E552040
:101E300091F0A801BE016A0D7B1DC6018E0D9F1D8C
:101E40000E94C30CA801B5016E0D7F1DCE018C0D43
:101E50009D1D0E94C30C442091F0A801B5016C1B8C
:101E60007D0BC6018E0D9F1D0E94C30CA801B501FC
:101E70006E197F09CE018C0D9D1D0E94C30C33206D
:101E800091F0A801B5016E0D7F1DC6018C1B9D0B45
:101E90000E94C30CA801BE016A0D7B1DC6018E19EC
:101EA0009F090E94C30C222009F49ACFA801B50112
:101EB0006E197F09C6018C1B9D0B0E94C30CA801E3
:101EC000B5016C1B7D0BC6018E199F090E94C30CC6
:101ED00087CF2F923F924F925F926F927F928F9215
:101EE0009F92AF92BF92CF92DF92EF92FF920F93A9
:101EF0001F93CF93DF9300D000D0CDB7DEB78B8395
:101F00009C837B016A01C90109831A838901061B2D
:101F1000170B17FF03C011950195110946012B817D
:101F20003C81821A930A97FE03C091948194910890
:101F3000801691065CF43C2D2D2D6C01832F922F81
:101F40003B812C81FC82EB82E32EF22E2B813C81A3
:101F5000C216D3065CF43E2D2F2D7C01832F922FC9
:101F60003B812C81DC82CB82C32ED22E16012B81A9
:101F70003C81221A330A2C014E185F0857FE03C019
:101F8000519441945108310137FE03C03FEF631A69
:101F9000730A75946794E816F906D4F1AA24AA94F2
:101FA000BA2C2B813C81C216D306BCF40F900F9043
:101FB0000F900F90DF91CF911F910F91FF90EF90B5
:101FC000DF90CF90BF90AF909F908F907F906F9059
:101FD0005F904F903F902F90089549815A816B8177
:101FE0007C81C701801691061CF0B7018B819C8112
:101FF0000E94C30C6418750877FE04C0EA0CFB1C31
:10200000620C731C8B819C8101969C838B83C9CF4E
:10201000AA24A394B12CC5CF0F931F938901460F17
:10202000571F9A0121503109AC010E94690F1F917D
:102030000F9108952F923F924F925F926F927F92ED
:102040008F929F92AF92BF92CF92DF92EF92FF92C8
:102050000F931F93CF93DF9300D000D0CDB7DEB79F
:102060002C015B014B835C83480181E090E06C01B3
:102070004B815C81C41AD50A1A013194219431082C
:10208000220C331C10E000E066246394712C522F64
:102090005170598322702A834B815C810417150784
:1020A000BCF00F900F900F900F90DF91CF911F9188
:1020B0000F91FF90EF90DF90CF90BF90AF909F90E7
:1020C0008F907F906F905F904F903F902F900895EA
:1020D000D7FC0AC08B819C8101979C838B8392E003
:1020E000290E311CC20CD31C0F5F1F4FE2E06E0E95
:1020F000711CC60CD71CF981FF2301F14B815C8157
:10210000440F551F4F5F5F4F480D591D9701B50193
:102110008B819C81681B790BC201800F911F0E94EB
:102120000C109701A401460D571DB501601B710BE2
:102130008B819C81840D951D0E940C109A8199239E
:1021400009F4AACF4B815C81440F551F4F5F5F4F4D
:10215000480D591D9701B501EB81FC816E1B7F0B6A
:10216000C201801B910B0E940C109701A301480D26
:10217000591DB501601B710BC201EB81FC818E1BE7
:102180009F0B0E940C1088CFAF92BF92CF92DF922C
:10219000EF92FF920F931F93CF93DF936C015B013C
:1021A000EA017901440F551F4F5F5F4F6C1B7D0B98
:1021B000C6010E94E80C10E000E023E0AE01B5018A
:1021C000C6010E941A10DF91CF911F910F91FF90CD
:1021D000EF90DF90CF90BF90AF9008950F931F9333
:1021E0008901480F591F415051099B010E94690FF5
:1021F0001F910F910895AF92BF92CF92DF92EF920D
:10220000FF920F931F93CF93DF93EC017B015A0151
:10221000690198010E94EE10B7016C0D7D1D61509F
:1022200071099801A501CE010E94EE109801A60146
:10223000B701CE010E940C10CE018A0D9B1D9801A2
:10224000A601B7010197DF91CF911F910F91FF90E8
:10225000EF90DF90CF90BF90AF900C940C10AF92A6
:10226000BF92CF92DF92EF92FF920F931F93CF9383
:10227000DF93D62EC72EB22EA32EEC017C01E40EE6
:10228000F51ECE15DF055CF0DF91CF911F910F9108
:10229000FF90EF90DF90CF90BF90AF90089598019E
:1022A0004B2D5A2D6D2D7C2DCE010E940C102196A8
:1022B000E8CF2F923F924F925F926F927F928F92D0
:1022C0009F92AF92BF92CF92DF92EF92FF920F93C5
:1022D0001F93CF93DF9300D000D0CDB7DEB75C0162
:1022E0006B011A0129010B831C830B811C81000FD8
:1022F000111F3A01601A710A8B809C808A0C9B1C0A
:102300009701A301C4010E94EE10C601840D951D22
:102310009A838983BC01615071099701A301C401AB
:102320000E94EE10401A510A8B819C81C80ED91E62
:102330009701A201B601C5010E940C10A20CB31CAA
:102340009701A201B601C50101970E940C108701F7
:1023500021E04B815C81B601C4010E94C30E8B81D8
:102360009C81A81AB90A91E0A91AB10822E04B8110
:102370005C81B601C5010E94C30EC980DA808B81E1
:102380009C81C81AD90A91E0C91AD10824E04B816E
:102390005C81B601C5010E94C30E28E04B815C81BF
:1023A000B601C4010E94C30E0F900F900F900F90C2
:1023B000DF91CF911F910F91FF90EF90DF90CF9021
:1023C000BF90AF909F908F907F906F905F904F9055
:1023D0003F902F9008952F923F924F925F926F926D
:1023E0007F928F929F92AF92BF92CF92DF92EF92A5
:1023F000FF920F931F93CF93DF931C015B012A0180
:10240000E901680137017801EE0CFF1C4801820CDC
:10241000931C4E195F098301C4010E942F11CE192C
:10242000DF092197AC0CBD1C420C531CC2018C1956
:102430009D0973018E0121E0A601B50101970E945B
:102440001A1022E0A601B501C4010E941A10DF9102
:10245000CF911F910F91FF90EF90DF90CF90BF90A1
:10246000AF909F908F907F906F905F904F903F9034
:102470002F9008952F923F924F925F926F927F928A
:102480008F929F92AF92BF92CF92DF92EF92FF9284
:102490000F931F93CF93DF9300D000D000D00F9203
:1024A000CDB7DEB72C013B015A01690109831A83BC
:1024B000ED822F2CC901079697FD07969C0193E0AA
:1024C000359527959A95E1F73C832B83F12CE12CE8
:1024D000312C10E000E029813A81021713070CF437
:1024E00048C027960FB6F894DEBF0FBECDBFDF9170
:1024F000CF911F910F91FF90EF90DF90CF90BF9001
:10250000AF909F908F907F906F905F904F903F9093
:102510002F9008958E819F8187709927330C892B86
:1025200061F4EE81FF8183E0F595E7958A95E1F707
:10253000EE0DFF1DEA0DFB1D349037FE09C04D81E5
:10254000522DB4018E819F81840D951D0E94C30C74
:102550008E819F8101969F838E832E813F812C15D2
:102560003D05C4F20F5F1F4F8B819C81E80EF91E61
:10257000B2CF1F821E824301800E911EEECF2F929A
:102580003F924F925F926F927F928F929F92AF9203
:10259000BF92CF92DF92EF92FF920F931F93CF9350
:1025A000DF9300D000D00F92CDB7DEB73C015A01C7
:1025B000690109831A83EB822F2C8B01290187E0A3
:1025C000480E511C57FE04C029019EE0490E511CC3
:1025D00093E0559447949A95E1F7912C812C312CF6
:1025E000F12CE12C89819A81E816F9060CF448C097
:1025F0000F900F900F900F900F90DF91CF911F9140
:102600000F91FF90EF90DF90CF90BF90AF909F9091
:102610008F907F906F905F904F903F902F90089594
:102620008C819D81877099273694892B61F4EC8188
:10263000FD8183E0F595E7958A95E1F7E80DF91DB1
:10264000EA0DFB1D349030FE09C04B81522DB801BC
:102650008C819D81860D971D0E94C30C8C819D816C
:1026600001969D838C838C819D818C159D05C4F280
:102670009FEFE91AF90A0F5F1F4F840C951CB2CF28
:102680001D821C82F0CF80911506909116069093C2
:10269000100680930F068091030690910406909394
:1026A0000E0680930D0608958091150690911606EA
:1026B00090930A0680930906809103069091040680
:1026C00090931206809311060895809115069091BB
:1026D000160690930C0680930B068091030690914A
:1026E00004069093190680931806089580911506A4
:1026F0009091160690930606809305068091030636
:1027000090910406909308068093070608952F92EF
:102710003F924F925F926F927F928F929F92AF9271
:10272000BF92CF92DF92EF92FF920F931F93CF93BE
:10273000DF93CDB7DEB729970FB6F894DEBF0FBE93
:10274000CDBF6B01190109831A838887998780910E
:10275000150190911601288539852817390708F049
:1027600068C080911301909114016817790708F0EF
:1027700060C0C90136E0E39E800D911D112418163A
:1027800019060CF056C08E2D90E09D838C83E8E0F6
:10279000EE9EC0011124860F971F181619060CF023
:1027A00048C0F5E04F9FA00111249A0129533E4FE4
:1027B0003F832E83688479841B825C804D803B81BB
:1027C000F12C353019F0EE81FF81F4904601B12CE7
:1027D000A12CF0FE47C0F1E0A1018101EF1250C031
:1027E000B6016A0D7B1DC3010E94C30CF6948FEFE6
:1027F000A81AB80AEC81FD818E0E9F1EF8E0AF1674
:10280000B10439F72B812F5F2B8388859985EC8163
:10281000FD818E0F9F1F99878887FFEF6F1A7F0AB0
:102820002E813F812F5F3F4F3F832E833B81363088
:1028300031F629960FB6F894DEBF0FBECDBFDF91FB
:10284000CF911F910F91FF90EF90DF90CF90BF90AD
:10285000AF909F908F907F906F905F904F903F9040
:102860002F90089529813A812215330509F4BECFAE
:1028700031E009811A81E31203C049815A81B0CF46
:10288000252D342D452D542DB401888599850E9420
:10289000600DACCFEF920F931F93482FE090170677
:1028A0000091010610910206209113063091140642
:1028B00060910306709104068091150690911606AA
:1028C0000E94871320911706809115069091160695
:1028D00036E0239F800D911D11249093160680935E
:1028E00015061F910F91EF9008959093160680930F
:1028F00015067093040660930306089590931406DA
:102900008093130670930206609301060895893040
:1029100028F4811101C081E08093170608958A3060
:10292000A9F480911706209103063091040648E02F
:10293000849FC0011124820F931F909304068093FB
:102940000306109216061092150608958D3011F0A8
:102950000C944A1408950E948F1481E090E0089529
:102960008F929F92AF92BF92DF92EF92FF920F935E
:102970001F93CF93DF9387E191E090931D0680939F
:102980001C0604E010E01093160600931506109341
:102990000406009303068FE39FE10197F1F700C05F
:1029A000000080EE97E09093140680931306109237
:1029B0000206109201068FE39FE10197F1F700C034
:1029C0000000C2E0C09317068FE39FE10197F1F783
:1029D00000C0000081E492E09F938F930E94AA348C
:1029E0008FE39FE10197F1F700C0000080E098EFCE
:1029F000909314068093130610920206109201061B
:102A00008FE39FE10197F1F700C00000C093170624
:102A10008FE39FE10197F1F700C0000089E492E0A5
:102A20009F938F930E94AA348FE39FE10197F1F760
:102A300000C00000109316060093150688E2A82E29
:102A4000B12CB0920406A09203068FE39FE1019798
:102A5000F1F700C000008FEF97E090931406809389
:102A6000130610920206109201068FE39FE1019770
:102A7000F1F700C00000D4E0D09317068FE39FE188
:102A80000197F1F700C0000086E50E944A148FE329
:102A90009FE10197F1F700C000008091030690913B
:102AA000040606969093040680930306C3E0C09341
:102AB00017068FE39FE10197F1F700C000008AE558
:102AC00092E00E94C0348FE39FE10197F1F700C0CC
:102AD000000080910306909104060C9690930406E2
:102AE000809303060E9443138EE592E09F938F9399
:102AF0000E94AA348FE39FE10197F1F700C0000024
:102B0000109316060093150698E7892E912C909243
:102B10000406809203068FE39FE10197F1F700C05E
:102B20000000D09317068FE39FE10197F1F700C0F3
:102B3000000086E50E944A148FE39FE10197F1F7B8
:102B400000C00000809103069091040606969093C1
:102B5000040680930306C09317068FE39FE1019755
:102B6000F1F700C0000085E692E00E94C0348FE3D8
:102B70009FE10197F1F700C000000E94541325E087
:102B8000D22ED09217060DE612E01F930F930E94EB
:102B9000AA348FE39FE10197F1F700C0000034EA07
:102BA000E32EF12CF0921606E0921506B092040680
:102BB000A09203068FE39FE10197F1F700C00000A8
:102BC00080EE9FEF909314068093130610920206F6
:102BD000109201068FE39FE10197F1F700C000001A
:102BE000D09317068FE39FE10197F1F700C0000033
:102BF00089E40E944A148FE39FE10197F1F700C036
:102C000000008091030690910406069690930406B6
:102C100080930306C09317068FE39FE10197F1F7B6
:102C200000C000008AE592E09F938F930E94AA342F
:102C30008FE39FE10197F1F700C00000F0921606C4
:102C4000E092150680910306909104068496909375
:102C50000406809303060E946513C093170683E75A
:102C600092E09F938F930E94AA348FE39FE1019794
:102C7000F1F700C00000F0921606E092150690925F
:102C80000406809203068FE39FE10197F1F700C0ED
:102C90000000D09317068FE39FE10197F1F700C082
:102CA000000089E40E944A148FE39FE10197F1F745
:102CB00000C0000080910306909104060696909350
:102CC000040680930306C09317068FE39FE10197E4
:102CD000F1F700C000008AE792E09F938F930E9473
:102CE000AA348FE39FE10197F1F700C00000F09252
:102CF0001606E09215060E947613809103069091C5
:102D00000406C0969093040680930306D09217069B
:102D10001F930F930E94AA349FEF27EA81E69150F8
:102D200020408040E1F700C000008DB79EB740967C
:102D30000FB6F8949EBF0FBE8DBFDF91CF911F914C
:102D40000F91FF90EF90DF90BF90AF909F908F908A
:102D500008951092C50087E68093C40086E08093B2
:102D6000C20088E98093C1000895CF93C82F8A30AC
:102D700019F48DE00E94B5168091C00085FFFCCF4C
:102D8000C093C600CF910895CF93C82F82958F70BE
:102D9000C03A58F4805D0E94B5168C2F8F708A302F
:102DA00030F4805DCF910C94B516895AF4CF895ACE
:102DB000F9CFCF93C82F892F0E94C4168C2FCF91A3
:102DC0000C94C416CF93DF93D62FC72F0E94D91629
:102DD0008D2F9C2FDF91CF910C94D916AF92BF927B
:102DE000DF92EF92FF920F931F93CF93DF938C01AB
:102DF00085E0E82EF12C20E0C0E1D7E29AE0A92E90
:102E0000B12CC801BE010E94F433D62E262B19F432
:102E1000C130D10529F480E38D0D0E94B51621E063
:102E2000DC9EC001DD9E900D1124081B190BCE0104
:102E3000B5010E94F433EB0181E0E81AF10809F7CB
:102E4000DF91CF911F910F91FF90EF90DF90BF9096
:102E5000AF9008958F929F92AF92BF92CF92DF92E0
:102E6000EF92FF920F931F93CF93DF93CDB7DEB70F
:102E700029970FB6F894DEBF0FBECDBF69837A8362
:102E80008B839C830AE010E01986C12C8AECD82E33
:102E90008AE9E82E8BE3F82E9AE0892E912CA12C5A
:102EA000B12C69817A818B819C81A70196010E9456
:102EB0001C342D833985322B3987311106C041E00E
:102EC000C416D104E104F10431F48D81805D0E94C7
:102ED000B51651E059878D81A82FB0E0A701960162
:102EE0000E94533429813A814B815C81261B370B28
:102EF000480B590B29833A834B835C83C701B60186
:102F0000A50194010E941C3469017A010150110944
:102F100041F629960FB6F894DEBF0FBECDBFDF9104
:102F2000CF911F910F91FF90EF90DF90CF90BF90C6
:102F3000AF909F908F900895CF93DF93EC0189918C
:102F4000811103C0DF91CF9108950E94B516F7CF8C
:102F5000CF93DF93EC01FE0184912196882319F031
:102F60000E94B516F8CFDF91CF9108959FB778945E
:102F70008091C00087FF07C09FBF8091C6008D3041
:102F800009F48AE0089583B7816083BF889583B789
:102F90008E7F83BFEDCF18951092640082E08093FE
:102FA000B9008CE08093B80084E08093BC00089561
:102FB00084EA8093BC008091BC0087FFFCCF089519
:102FC00084E98093BC0008958093BB0084E88093DB
:102FD000BC008091BC0087FFFCCF089584EC8093F7
:102FE000BC008091BC0087FFFCCF8091BB0008959E
:102FF00084E88093BC008091BC0087FFFCCF809167
:10300000BB0008958091B900887F0895FC018081FC
:1030100091810895CF93DF9300D000D0CDB7DEB774
:10302000FC012081318142815381CA01B9010F9095
:103030000F900F900F90DF91CF910895FC01718355
:1030400060830895FC0140835183628373830895F4
:1030500080E190E008959C01FC018191255F3F4F44
:1030600080FB879587F99191890F2E173F07C1F74C
:103070000895CF92DF92EF92FF920F931F93CF9319
:10308000DF937C01E901CA80DB8010E000E0C7012A
:10309000800F911F0C151D0550F081E0DF91CF913D
:1030A0001F910F91FF90EF90DF90CF9008950E94B5
:1030B0000618892B29F48881998101969983888340
:1030C0000E5F1F4FE4CF8F929F92AF92BF92CF922D
:1030D000DF92EF92FF920F931F93CF93DF93CDB7C1
:1030E000DEB72D970FB6F894DEBF0FBECDBF7C01C3
:1030F0004A015B016901D9010D911C91119712964A
:103100008D919C911397809613969C938E93129712
:10311000F7018081853E11F0811117C0D601149608
:103120001C9281E02D960FB6F894DEBF0FBECDBF86
:10313000DF91CF911F910F91FF90EF90DF90CF9093
:10314000BF90AF909F908F90089583858F3009F046
:1031500045C014968C91882319F095858917B1F094
:103160008BE2F80111928A95E9F7D7011D968C91AF
:10317000F6018483D80197968C92979798969C92A3
:1031800098979996AC9299979A96BC92F70120815C
:103190002F732150330B4DE0429FC001439F900D90
:1031A0001124E1E8F2E0DE01119601900D924A95BA
:1031B000E1F7FE0131962DE0280F8F31910508F0DF
:1031C000B0CFA191AE0DBF2DB11D3C91D801A80F7C
:1031D000B91F3C9301962813F0CFA3CFD8018C914F
:1031E000882341F0C7010E942B18F601948198179B
:1031F00009F45CC08BE2D8011D928A95E9F7F801C9
:1032000087A290A6A1A6B2A69701B801E0E0D901D5
:103210008D919D018032B9F0DB018C93D7011C9612
:103220009C9193FF0BC0A90141505109DA019C9177
:1032300091549A3118F4805EDB018C93EF5F6F5FDD
:103240007F4FE83021F7D8018C91853011F485EE5D
:103250008C93D70118968C91803221F1D801AE0F52
:10326000B11D8EE28C93B701685F7F4F94E09E0F93
:10327000EF5FDB018D91BD0198012E0F311D803272
:1032800089F0D9018C93D7011C964C9144FF07C05B
:103290004FEB480F4A3118F4805ED9018C93EF5FF1
:1032A000E913E7CFE00FF12FF11D1082F7018385BD
:1032B000D80190968C93C7014A960E940618F8018F
:1032C00092A381A3C7014C960E940A18D801939635
:1032D0006D937D938D939C93969781E0F601858302
:1032E00080E020CF0F931F93CF93DF9300D000D0C7
:1032F00000D0CDB7DEB7FC01CB01309789F1623049
:10330000710570F1B0E0A0E0880F991FAA1FBB1FE4
:1033100046815781608571858C019D01040F151FC1
:10332000261F371F0B831C832D833E830190F08162
:10333000E02D0190F081E02D22E030E0AE014F5F02
:103340005F4F6B817C818D819E810995882341F03F
:1033500089819A819C01215031092F3E3F4F10F005
:1033600090E080E026960FB6F894DEBF0FBECDBF8A
:10337000DF91CF911F910F910895AF92BF92CF929D
:10338000DF92EF92FF920F931F93CF93DF9300D0C2
:1033900000D000D0CDB7DEB78C015B01009709F4F7
:1033A00066C06230710508F462C0DC011696CD90EB
:1033B000DD90ED90FC901997C501B0E0A0E0880F7A
:1033C000991FAA1FBB1F9C01AD012C0D3D1D4E1D59
:1033D0005F1D2B833C834D835E83D801ED91FC916F
:1033E0000190F081E02D22E030E0AE014F5F5F4FB1
:1033F0006B817C818D819E810995882339F1A9801B
:10340000BA80A114B10409F1C5014096089778F17A
:10341000B8EFAB16BFEFBB0610F0B12CA12C1A828F
:103420001982D801ED91FC910480F581E02D22E014
:1034300030E0AE014F5F5F4F6B817C818D819E815B
:103440000995A114B10409F0B7CF81E026960FB613
:10345000F894DEBF0FBECDBFDF91CF911F910F91CA
:10346000FF90EF90DF90CF90BF90AF90089580E0F5
:10347000EDCF2F923F924F925F926F927F928F92F9
:103480009F92AF92BF92CF92DF92EF92FF920F93F3
:103490001F93CF93DF93CDB7DEB72C970FB6F89479
:1034A000DEBF0FBECDBF8C011B014A010097E1F4C6
:1034B000D12CC12CC6012C960FB6F894DEBF0FBEDE
:1034C000CDBFDF91CF911F910F91FF90EF90DF90D3
:1034D000CF90BF90AF909F908F907F906F905F90B4
:1034E0004F903F902F900895DC01ED91FC91119742
:1034F000208131813A8729874481558158874F83BC
:1035000016964D905D906D907C9019975A96ED901F
:10351000FC905B971A96AD90BD90CD90DC901D9776
:10352000D694C794B794A794BC86AB865B961C923E
:103530001E925A97D12CC12CA114B10419F48928D8
:10354000D1F175C052E0E516F10428F08B859C8519
:10355000E816F90618F042E0E42EF12CC701B0E0BD
:10356000A0E0880F991FAA1FBB1F9C01AD01240D6D
:10357000351D461D571D2B833C834D835E8322E002
:1035800030E0AE014F5F5F4F6B817C818D819E810A
:10359000E985FA850995882309F48ACF89819A817A
:1035A000892B09F050C08114910461F5D8015B9614
:1035B000FC92EE925A9742E02416310408F47ACF36
:1035C000DA82C982C101B0E0A0E0880F991FAA1F6A
:1035D000BB1F9C01AD01240D351D461D571D2B83BE
:1035E0003C834D835E8322E030E0AE014F5F5F4F4E
:1035F0006B817C818D819E81EF81F885099588237F
:10360000B1F058CFC114D104B9F4EFEFFFEFFA8352
:10361000E98322E030E0AE014F5F5F4F6B817C8138
:103620008D819E81EF81F8850995811108C0B601D1
:10363000C8010E94BD193CCFDA82C982EACFF1E00D
:103640008F1A9108670121E0A21AB1083FEFE31A2F
:10365000F30A72CFCF93DF9300D000D0CDB7DEB79F
:10366000FC019B01892B41F16230710528F1225048
:103670003109A089B1890E94443469837A838B839C
:103680009C8382899389A489B58929813A814B8158
:103690005C81280F391F4A1F5B1F29833A834B83A4
:1036A0005C8369817A818B819C810F900F900F9050
:1036B0000F90DF91CF91089519821A821B821C828C
:1036C000F0CFEF92FF920F931F93CF93DF93CDB77D
:1036D000DEB760970FB6F894DEBF0FBECDBF8C018A
:1036E0006230710528F10E942A1BAE014F5F5F4FC7
:1036F00020E1DA011D922A95E9F7F8012089318944
:103700000190F081E02D0680F781E02DF12CE12C75
:1037100008E218E1099560960FB6F894DEBF0FBE77
:10372000CDBFDF91CF911F910F91FF90EF90089542
:1037300080E0F1CF4F925F926F927F928F929F9233
:10374000AF92BF92CF92DF92EF92FF920F931F93AF
:10375000CF93DF9300D000D00F92CDB7DEB78C01AE
:103760009B01FA0101900020E9F7CF01841B950B22
:103770000B966DE070E00E94F43388248394860EEB
:10378000D901AD90BC90A114B10409F064C0F80156
:1037900046885788608C718C228933894489558981
:1037A0002A833B834C835D8373016201912C2A81C0
:1037B0003B814C815D81C216D306E406F50609F013
:1037C0006AC0A114B10409F48DC0CD28CE28CF2839
:1037D00009F44AC0B501C8010E947219009709F0A6
:1037E00042C041E050E0B501C8010E94391AAC0165
:1037F000009709F477C09C0122503109F801A08993
:10380000B1890E9444346A837B838C839D83428880
:10381000538864887588460E571E681E791EBA0143
:10382000C8010E94611BC301B2010F900F900F905D
:103830000F900F90DF91CF911F910F91FF90EF901C
:10384000DF90CF90BF90AF909F908F907F906F90C0
:103850005F904F9008951A821B821C821D82412C1A
:10386000512C3201A1CF5C01B501C8010E942A1B75
:103870006B017C01D80150968D919C91A701960116
:10388000280F391F411D511D2A833B834C835D83C3
:1038900026013701912CD801ED91FC910190F08126
:1038A000E02D21E030E0AE014F5F5F4FC701B60170
:1038B00009958823B9F08981853E11F081110AC0EC
:1038C0009394981408F0AFCFB0E2CB0ED11CE11C5A
:1038D000F11C6DCF26013701E0E24E0E511C611C38
:1038E000711C62CF412C512C32019DCF4F925F92BF
:1038F0006F927F929F92AF92BF92CF92DF92EF92A0
:10390000FF920F931F93CF93DF93CDB7DEB7A497AA
:103910000FB6F894DEBF0FBECDBFFC018B01892B23
:1039200009F434C16115710509F430C10190F081C9
:10393000E02DA480B580DB0197964D905D906D9051
:103940007C909A97FB0101900020E9F731976F0175
:10395000C61AD70AEC2CC60199270C966DE070E0C8
:103960000E940834F62E4BE050E060E270E0CE0199
:1039700001960E9467346EE270E0C8010E949F3495
:10398000BC010097C9F0FC0181818823A9F06F5F19
:103990007F4FFB0101900020E9F73197E61BF70B01
:1039A000CA94EC2CEE1AE43008F0E3E04E2F50E01D
:1039B000CE0109960E945E34F8E0FE1508F481C03D
:1039C0004E2D50E0B801CE0101960E945E34D80120
:1039D0008C918E3251F411968C9111978E3211F494
:1039E00012968C91882309F487C08981853E11F451
:1039F00085E08983FE013D9684E1DF011D928A9571
:103A0000E9F7F80180A18C8761A172A1CE014B96E4
:103A10000E941E18D80193964D915D916D917C91F5
:103A20009697CE014D960E942218CF2CD12CB0E251
:103A3000FB9EC0011124A3019201280F391F411DD3
:103A4000511D29A33AA34BA35CA320E230E0AE01B1
:103A50004F5F5F4F69A17AA18BA19CA1F5010995E8
:103A60008823C9F0CE0101960E942B18982EF1E010
:103A7000CF1AD1082DE02C9DC0012D9D900D112451
:103A8000080F191FEF2CDF2C6894D6F88FE0C82E92
:103A9000E11034C081E0A4960FB6F894DEBF0FBEEB
:103AA000CDBFDF91CF911F910F91FF90EF90DF90ED
:103AB000CF90BF90AF909F907F906F905F904F900E
:103AC000089586E0F801DE01119601900D928A9525
:103AD000E1F7F80181A1982F92959F70803A40F408
:103AE000905D9F838F708A3028F4805D88877DCFBA
:103AF0009F59F7CF8F59FACFF12C77CF40E250E0A2
:103B00006FEF70E0CE0101960E946734F80191E0FA
:103B100041E0490F819121E030E02C0F3D1F290F3A
:103B2000311DD9018C939E5FA1E0B0E0AC0FBD1FA9
:103B3000A40FB11D1C929B3019F19A3119F1DF01CC
:103B400011978C91882311F09F3110F3FE14E1F04E
:103B5000E982CC869E861D861B8E1C8E20E230E07C
:103B6000AE014F5F5F4FC301B201F5010995F0E26D
:103B70004F0E511C611C711CEA940D50110988CF25
:103B80009EE0DDCF9CE1DBCFD982E3CF80E083CF25
:103B90002F923F924F925F926F927F928F929F925D
:103BA000AF92BF92CF92DF92EF92FF920F931F934B
:103BB000CF93DF93CDB7DEB7AE970FB6F894DEBFE5
:103BC0000FBECDBF8C01009709F46BC1DC011496C8
:103BD0008D919C911597892B59F016968D919C91FA
:103BE000892B31F080917A0390917B03892B91F09E
:103BF00010E000E056C110927B0310927A03F8CFD8
:103C00008BE0D80118968C93BAC082E090E0A0E0D7
:103C1000B0E0F5C0ECE7F3E08AE1DF011D928A95A0
:103C2000E9F710937B0300937A03F80141845284EF
:103C30006384748489E0440C551C661C771C8A9547
:103C4000D1F7A3019201255F3F4F4F4F5F4F2E8F5A
:103C50003F8F48A359A30190F081E02D29E130E086
:103C6000AE014F5F5F4F6E8D7F8D88A199A1099541
:103C7000882309F2CE0101960E9406187C01CE012C
:103C800004960E9406186C01BB81BAA7EE81EAA3D4
:103C9000CE0107960E9406188E8F9F8FCE0109963F
:103CA0000E9406181C01CE010C960E9406188A8FED
:103CB0009B8FCE0146960E940A184B015C0181142D
:103CC0009104A104B10439F42114310409F493CF0F
:103CD0004101B12CA12C2A8D3B8D232B09F48BCFD4
:103CE0004AA1242F30E0AA8DBB8D0E9444346AA3E0
:103CF0007BA38CA39DA39701215031098E8D9F8DAD
:103D000045E0880F991F4A95E1F7820F931FB7018D
:103D10000E94F4338AA19BA1ACA1BDA18C0D9D1D75
:103D2000A11DB11D860F971FA11DB11DA5019401F5
:103D3000281B390B4A0B5B0B2A8F3B8F4C8F5D8FF7
:103D40008AA5282F30E050E040E06A8D7B8D8C8D75
:103D50009D8D0E941C342A8F3B8F4C8F5D8F253F99
:103D60009FE039074105510508F445CF253F3F4FF6
:103D70004105510508F044CF86E0F8018087E4E86A
:103D8000F3E080E1DF011D928A95E9F7970150E0A9
:103D900040E02BA73CA74DA75EA7D701A501940142
:103DA0000E94533460937C0370937D0380937E0361
:103DB00090937F0396010E9444346EA37FA388A74B
:103DC00099A7460E571E681E791E40928003509296
:103DD000810360928203709283032A8D3B8D4C8D08
:103DE0005D8D2E5F3F4F4F4F5F4FD80118968C91DE
:103DF000863009F40ACF84E090E0A0E0B0E08A8F3A
:103E00009B8FAC8FBD8F6A8D7B8D8C8D9D8D0E941D
:103E1000E4336093840370938503809386039093C7
:103E20008703F0928903E0928803AAA5AE9DC001A2
:103E3000AF9D900D112490938B0380938A032AA148
:103E40003BA14CA15DA16BA57CA58DA59EA50E9463
:103E5000E433DC01CB01840D951DA61DB71D8093B5
:103E6000900390939103A0939203B0939303EE8DEC
:103E7000FF8D2F01712C612C25E0440C551C661C14
:103E8000771C2A95D1F7840D951DA61DB71D80932B
:103E90008C0390938D03A0938E03B0938F030AE756
:103EA00013E0C801AE960FB6F894DEBF0FBECDBFCB
:103EB000DF91CF911F910F91FF90EF90DF90CF9006
:103EC000BF90AF909F908F907F906F905F904F903A
:103ED0003F902F900895FC01892B11F011821082E0
:103EE0000895CF93DF93EB01009769F0209749F095
:103EF00028A124FD06C02091470330914803232BBD
:103F000029F090E080E0DF91CF9108952BE2FB0152
:103F1000A9E4B3E001900D922A95E1F7909348034C
:103F200080934703109274031092750310927603E6
:103F30001092770389A19AA19093790380937803D3
:103F400087E493E0E0CFFC01892B11F0118210820D
:103F500008952F923F924F925F926F927F928F922D
:103F60009F92AF92BF92CF92DF92EF92FF920F9308
:103F70001F93CF93DF9300D000D000D0CDB7DEB732
:103F80008C016B014D835E83892BF9F42FEF3FEF9A
:103F90003A83298389819A8126960FB6F894DEBFE9
:103FA0000FBECDBFDF91CF911F910F91FF90EF908A
:103FB000DF90CF90BF90AF909F908F907F906F9049
:103FC0005F904F903F902F900895672BF9F28D816D
:103FD0009E81892BD9F2D8019D968D909D90AD90B0
:103FE000BC90D09795968D919D910D90BC91A02DF0
:103FF0009A828982B501A401ED81FE814E0F5F1F77
:10400000611D711D84179507A607B70748F49C0129
:10401000281939093E832D838815990509F4B5C0FF
:10402000D801ED91FC91119720883188D196ED90BF
:10403000FC90D297E114F104F9F49396ED90FC9082
:10404000E114F10481F4E1E0F0E0FA83E9838928E6
:104050008A288B2811F41A82198229813A81319594
:104060002195310995CF2101712C612C8114910486
:10407000A104B10409F047C03101B1E06B1A710825
:10408000E981FA816E227F228D809E80D8014D9039
:104090005C90B701C2010E942A1B462F572FBC011A
:1040A000C1018619970954018815990508F45C0126
:1040B000DB01CA01860D971DA11DB11D89839A835D
:1040C000AB83BC83D201ED91FC910190F081E02D96
:1040D0009501A60169817A818B819C810995811165
:1040E0001DC0ED81FE81E819F909FA83E98352CFF9
:1040F00084189508A608B708B7010E9472197C01B8
:10410000892B09F443CFD8018D919C918414950497
:10411000A604B70468F7B0CF4201B8CFCA0CDB1CC5
:1041200024014A185B08F80185A596A5A7A5B0A9A2
:104130008A0D9B1DA11DB11D85A796A7A7A7B0AB92
:10414000C501860D971D82159305A0F0B7018081EA
:1041500091810E9472197C01892B51F4D801D29669
:104160001C921E92D197ED81FE81EA0DFB1DBBCF03
:10417000712C612CD801D296FC92EE92D197411409
:10418000510451F6ED81FE81B0CF1A82198202CF1F
:104190002F923F924F925F926F927F928F929F9257
:1041A000AF92BF92CF92DF92EF92FF920F931F9345
:1041B000CF93DF93CDB7DEB728970FB6F894DEBF65
:1041C0000FBECDBF8F8398876B0149835A838F8140
:1041D0009885892BD9F48FEF9FEF28960FB6F89426
:1041E000DEBF0FBECDBFDF91CF911F910F91FF902A
:1041F000EF90DF90CF90BF90AF909F908F907F9087
:104200006F905F904F903F902F900895672B19F318
:10421000A981BA81AB2BF9F2EF81F88545A556A5A6
:1042200067A570A985A196A1A7A1B0A58417950738
:10423000A607B70780F280819181DC0150962D900E
:104240003C9001A912A97101B1E0EB1AF108E42236
:10425000F5220115110559F503A114A10115110548
:10426000A9F4452B462B472B09F0B5CF41E050E090
:1042700070E060E00E94391A8C01EF81F88594A308
:1042800083A3892B19F490E080E0A7CFAF81B88594
:104290009D968D909D90AD90BC90D0972101712CF2
:1042A000612C81149104A104B10409F0ABC0A98070
:1042B000BA80EF81F88560807180B801C3010E94E7
:1042C0002A1B462F572FBC01C1018E199F0945019A
:1042D0008A159B0508F44C01DB01CA018E0D9F1D58
:1042E000A11DB11D8B839C83AD83BE83D301ED9152
:1042F000FC910480F581E02D9401A6016B817C8105
:104300008D819E8109958823A9F1C80CD91CA81814
:10431000B908EF81F88585A596A5A7A5B0A9880D50
:10432000991DA11DB11D85A796A7A7A7B0AB8E0C9F
:104330009F1C8214930408F474C0B8018081918199
:104340000E9472197C01009709F068C0A114B104A1
:1043500069F041E050E0B801AF81B8858D919C9142
:104360000E94391A8C01892B09F05BC0EF81F88516
:1043700012AA11AAEF81F88585A596A5A7A5B0A9CF
:10438000C5A0D6A0E7A0F0A4C816D906EA06FB0689
:10439000C0F485A396A3A7A3B0A781919191BF0173
:1043A0000E94761C81110DC0AF81B8859D96AD909D
:1043B000BC909E97AC18BD08FD01C5A6D6A6E7A681
:1043C000F0AA89819A818A199B0907CF84189508D8
:1043D000A608B708B8010E9472190097E9F4811481
:1043E0009104A104B10409F0F6CE41E050E0B80117
:1043F000EF81F885808191810E94391A8C01892B87
:1044000009F441CFAF81B8858D919C9184149504B6
:10441000A604B704D8F64BCF8C01F4CF8C01F12C55
:10442000E12CAF81B885D2961C930E93D197A1143D
:10443000B10409F03ECF9ECF2F923F924F925F92F0
:104440006F927F928F929F92AF92BF92CF92DF92A4
:10445000EF92FF920F931F93CF93DF9300D000D082
:1044600000D0CDB7DEB71C016A017B010097D1F403
:1044700080E026960FB6F894DEBF0FBECDBFDF9169
:10448000CF911F910F91FF90EF90DF90CF90BF9051
:10449000AF909F908F907F906F905F904F903F90E4
:1044A0002F900895DC0193960D911C910115110533
:1044B00031F4C114D104E104F10409F460C0D10164
:1044C000ED91FC918088918826013701B12CA12CB7
:1044D000F1018081918184149504A604B70408F445
:1044E00060C00115110539F5D501C401840D951D74
:1044F000A61DB71D9C01AD0121503109410951098B
:104500002B833C834D835E83CA01B901A5019401CD
:104510000E941C34A901B801D1018D919C910E9487
:10452000391A009709F4A4CF0115110521F4F101FE
:1045300094A383A38C01D1019596CD92DD92ED9247
:10454000FC929897C114D104E104F10421F49496EB
:104550001C921E929397F10181919191BF010E944B
:10456000761C882309F484CFC114D104E104F1043A
:1045700021F5B801F101808191810E94BD19F101FD
:1045800085A596A5A7A5B0A9C816D906EA06FB0673
:1045900030F4C5A6D6A6E7A6F0AA12AA11AA81E011
:1045A00068CFB8010E947219009709F49DCF48188E
:1045B00059086A087B088C018BCF84149504A604E3
:1045C000B704E8F2D101AD90BC90A114B104B9F2E6
:1045D00002301105A0F2B801C5010E9472194C0108
:1045E0008FEF9FEF9A83898330E020E0000F111F47
:1045F000221F331FF50186819781A085B185B901FE
:10460000A801480F591F6A1F7B1F4B835C836D8372
:104610007E830190F081E02D0480F581E02D22E081
:1046200030E0AE014F5F5F4F6B817C818D819E8159
:104630000995882309F4A3CF8114910409F49FCF2D
:10464000B401C5019ACFCF92DF92EF92FF920F9300
:104650001F93CF93DF93EC018B01892B11F480E042
:1046600023C061157105D9F3413039F1423099F118
:104670004111F5CFFB01C080D180E280F3808DA194
:104680009EA1AFA1B8A58C159D05AE05BF0540F153
:10469000CDA6DEA6EFA6F8AA1AAA19AAF801C0822A
:1046A000D182E282F38281E0DF91CF911F910F915D
:1046B000FF90EF90DF90CF900895CDA4DEA4EFA4FB
:1046C000F8A8F80180819181A281B381C80ED91E1A
:1046D000EA1EFB1ED4CFCDA0DEA0EFA0F8A4F1CF40
:1046E000B701A601CE010E941C228111D1CFB7CF04
:1046F000CF93DF939B01009761F16115710591F0F4
:10470000FB0140A144FF0EC04091E5025091E6023A
:10471000452B59F04091160350911703C6E1D3E0A1
:10472000452B29F090E080E014C0C5EED2E0DE0118
:1047300012964BE2F90101900D924A95E1F79983A7
:104740008883F90181A192A19EA78DA718AA1FA60F
:10475000CE01DF91CF910895FC01892B11F01182D8
:1047600010820895FC01892B41F083A194A196A7A2
:1047700085A710AA17A681E0089580E008952F92DA
:104780003F924F925F926F927F928F929F92AF92E1
:10479000BF92CF92DF92EF92FF920F931F93CF932E
:1047A000DF93CDB7DEB7AA970FB6F894DEBF0FBE82
:1047B000CDBF5C01FB010097A1F0EF2B91F0DC0174
:1047C0004D905C90D20150962D903C90DC019F96CC
:1047D0008D919C91D0978215930528F0C5010E9478
:1047E000B22380E076C09D968D909C90AE014D5D89
:1047F0005F4F24E0DA011D922A95E9F72BE2DB01F5
:104800001D922A95E9F77AA369A38114910439F4DA
:10481000F2012288338826893789221A330A3C011B
:104820008EA181114CC08101061917096301F12C79
:10483000E12C8114910409F065C0F2018689978901
:10484000A08DB18DA7019301280F391F4A1F5B1F4F
:104850002FA338A749A75AA71CA21BA2D201ED91EA
:10486000FC910280F381E02D9E012F5D3F4F690195
:1048700083E6E82E88E1F82E20E230E0AE014F5FBB
:104880005F4F6FA178A589A59AA50995882309F19D
:104890008BA19CA1680E791E6214730408F4C0CF2A
:1048A000B401C2010E9472194C0190E080E08114B1
:1048B000910409F0B4CF8EA1882309F48FCFD501DC
:1048C0009E969C928E929D97D0967C926E929F9788
:1048D0008EA1AA960FB6F894DEBF0FBECDBFDF91B2
:1048E000CF911F910F91FF90EF90DF90CF90BF90ED
:1048F000AF909F908F907F906F905F904F903F9080
:104900002F900895B401C2010E942A1BDC01CB0143
:104910008C0D9D1DAE1DBF1D8FA398A7A9A7BAA77B
:104920009BCF8F929F92AF92BF92CF92DF92EF92E6
:10493000FF920F931F93CF93DF935C014B018A018A
:10494000892B09F476C06115710509F472C0FB0169
:104950008081882309F46DC0452B09F46AC08F3229
:1049600019F4FFEF8F1A9F0A8BE2F80111928A95D2
:10497000E9F780E1F80180A3F401808181110EC084
:1049800081E0DF91CF911F910F91FF90EF90DF9029
:10499000CF90BF90AF909F908F900895B801C501C0
:1049A0000E9478237C01892B09F443C06FE270E0F8
:1049B000C4010E946E34EC01009781F0C82EC81823
:1049C0002196D12CB801C7010E94BF23811112C0CA
:1049D000E401C7010E94AC234E01CECFE40109904F
:1049E0000020E9F72197C819D909CC2EC80DD92D77
:1049F000D11DE7CFF80101900020E9F73197E01BC6
:104A0000F10BEC15FD05F1F6A601B801C4010E94F9
:104A10008234892BB9F6C7010E94AC23C80CD91C7B
:104A2000F6018081882309F4ABCFF80180A184FDD1
:104A300002C080E0A6CFF12CE12CCBCFCF92DF9249
:104A4000EF92FF920F931F93CF93DF938C016B0133
:104A5000EA01892B11F480E019C061157105D9F3C1
:104A6000FB0180818823B9F32097A9F3BE01C80117
:104A70000E94BF23882399F0BE01C6010E947934A9
:104A8000892BA1F7C8010E94B22382E0DF91CF9168
:104A90001F910F91FF90EF90DF90CF900895F80154
:104AA000E080F1808BE2FE0111928A95E9F74FE1F7
:104AB00050E0B601CE010E94903440E050E0BA01CF
:104AC000E114F10451F0B8016D5D7F4FAE01C701F3
:104AD0000E949A1B462F572FBC014FA358A769A7C6
:104AE0007AA7452B462B472B09F4B5CFBE01C7014A
:104AF0000E94761C982F81E09111C8CFACCFDF9235
:104B0000EF92FF920F931F93CF93DF93CDB7DEB752
:104B100060970FB6F894DEBF0FBECDBF8C017B014E
:104B2000892B09F469C06115710509F465C0DB01C1
:104B300097968D919D910D90BC91A02D8D879E870C
:104B4000AF87B88B892B8A2B8B2B09F455C085EE48
:104B5000D82ED801ED91FC910190F081E02D2CE050
:104B600030E0AE014F5F5F4F6D857E858F85988900
:104B70000995882309F440C0D982D801ED91FC91B0
:104B80000480F581E02D2CE030E0AE014F5F5F4FF7
:104B90006D857E858F8598890995882369F18C8537
:104BA0008F3061F48D859E85AF85B8898096A11D73
:104BB000B11D8D879E87AF87B88BCBCFD7019196DC
:104BC0006D917C9181E06115710541F0C8010E94F1
:104BD000BD1991E0811101C090E0892F60960FB658
:104BE000F894DEBF0FBECDBFDF91CF911F910F9123
:104BF000FF90EF90DF90089580E0F0CFDF92EF928A
:104C0000FF920F931F93CF93DF93CDB7DEB7AB9790
:104C10000FB6F894DEBF0FBECDBF7C018B01CA0179
:104C2000B901E114F10481F4D12C8D2DAB960FB6AE
:104C3000F894DEBF0FBECDBFDF91CF911F910F91D2
:104C4000FF90EF90DF9008950115110569F300972B
:104C500059F32115310521F0F9012081222321F397
:104C6000FC01208131812E153F05F1F6611571059A
:104C700009F4B801AE014F5F5F4F0E941E258823E3
:104C800099F2F80180A189A381A192A19BA38AA393
:104C900083A194A1A5A1B6A18CA39DA3AEA3BFA3FC
:104CA000BE016F5F7F4FC7010E94761CD82E811115
:104CB00007C0BE016F5F7F4FC7010E947F25B5CF40
:104CC000F80112A211A2B801C7010E947F25882312
:104CD00009F4AACF8BE2FE013196D80101900D9222
:104CE0008A95E1F7DD24D394A0CF8F929F92AF9263
:104CF000BF92CF92DF92EF92FF920F931F93CF93C9
:104D0000DF9300D000D000D0CDB7DEB75C014B01FF
:104D10004D835E83892BA9F410E0812F26960FB670
:104D2000F894DEBF0FBECDBFDF91CF911F910F91E1
:104D3000FF90EF90DF90CF90BF90AF909F908F90BB
:104D400008956115710541F3FB018081882321F3EA
:104D50002D813E81232B01F36D817E81C5010E944F
:104D6000BF23811149C0F501E080F18041E050E0AE
:104D700070E060E0C7010E94391A6C01009761F28F
:104D8000BC01C7010E94611B8BE2ED81FE81119283
:104D90008A95E9F780E1ED81FE8180A3F701A08982
:104DA000B1899601225031090E94443469837A8383
:104DB0008B839C8382899389A489B58929813A81CF
:104DC0004B815C81820F931FA41FB51FED81FE8173
:104DD00087A390A7A1A7B2A70EE20083D2A2C1A287
:104DE000BF01C7010E94761C182F811111C0B601A6
:104DF000C7010E94BD1991CF6D817E81C4010E94BF
:104E00007934892B09F0A8CFC5010E94B22384CF41
:104E1000ED81FE8187A190A5A1A5B2A58096A11DD7
:104E2000B11D87A390A7A1A7B2A70183F50183A114
:104E300094A1ED81FE8192A381A3BF01C7010E94CD
:104E4000761C182F882399F24FE150E0B4018D8130
:104E50009E810E949034ED81FE81D2A2C1A240E0E9
:104E600050E0BA01E114F10451F0B5016D5D7F4FDE
:104E7000AF01C7010E949A1B462F572FBC01ED813D
:104E8000FE8147A350A761A772A7452B462B472B4E
:104E900029F4B601C7010E94BD193ECF6D817E8104
:104EA000C7010E94761C182F882309F4A0CF11E0B7
:104EB00034CFCF93DF9300D000D0CDB7DEB7FC0165
:104EC000892BF9F02285338544855585569547957C
:104ED000379527952250310941095109A089B18997
:104EE0000E94533469837A838B839C8369817A819E
:104EF0008B819C810F900F900F900F90DF91CF913D
:104F0000089519821A821B821C82F0CF2F923F9241
:104F10004F925F926F927F928F929F92AF92BF92C9
:104F2000CF92DF92EF92FF920F931F93CF93DF9375
:104F3000CDB7DEB7A8970FB6F894DEBF0FBECDBFD2
:104F40001C01892B09F51DA21EA21FA218A66DA186
:104F50007EA18FA198A5A8960FB6F894DEBF0FBECC
:104F6000CDBFDF91CF911F910F91FF90EF90DF9018
:104F7000CF90BF90AF909F908F907F906F905F90F9
:104F80004F903F902F9008951AA219A280E290E0CE
:104F90009CA38BA3D10116968D919D910D90BC91F0
:104FA000A02D8DA39EA3AFA3B8A7F1014284538483
:104FB00064847584411451046104710461F429A16D
:104FC0003AA1F101A089B1890E9444346DA37EA366
:104FD0008FA398A7BCCF53014201FEEF4F16FFEFFE
:104FE0005F066104710430F09EEF892E99249A9433
:104FF000A12CB12CD101ED91FC910280F381E02D27
:10500000CE0181966C0189E3E82E88E1F82E8401B7
:1050100020E230E0AE014F5F5F4F6DA17EA18FA116
:1050200098A50995882309F48ECF8DA19EA1AFA1E3
:10503000B8A5880D991DAA1DBB1D8DA39EA3AFA366
:10504000B8A7481859086A087B08B4CF9F92AF9256
:10505000BF92CF92DF92EF92FF920F931F93CF9365
:10506000DF93CDB7DEB764970FB6F894DEBF0FBEFF
:10507000CDBF7C016B01942EA52EB22E132F892B50
:10508000A1F490E080E064960FB6F894DEBF0FBE06
:10509000CDBFDF91CF911F910F91FF90EF90DF90E7
:1050A000CF90BF90AF909F900895672B51F304303D
:1050B00044F707FF3BC080919E038111E2CFEEE9E8
:1050C000F3E089E0DF011D928A95E9F7F0929703FA
:1050D000E0929603D0929903C092980390929A031B
:1050E000A0929B03B0929C0310939D0307FD3EC0CA
:1050F0008D8180939E03CE0109960E940A186093C9
:105100009F037093A0038093A1039093A203CE0109
:105110000D960E940A186093A3037093A4038093D2
:10512000A5039093A60386E993E0ADCF20E10202A8
:10513000C001112482549E4F9C01990F440B550BC2
:10514000298B3A8B4B8B5C8B20E130E0AE014F5FBB
:105150005F4F69897A898B899C89F7010995882332
:1051600009F48FCF8D818111A6CF8BCF8FEF8093E4
:105170009E03D9CFFC01892B19F0108681E0089598
:1051800080E008958EBD0DB407FEFDCF8DB58F77FD
:105190008DBD08958FEF8EBD0DB407FEFDCF8DB58B
:1051A0008F778DBD8EB50895FF920F931F93CF9388
:1051B000DF93C82FD42F152F062FF72E0E94CA2851
:1051C0008C2F80640E94C2288F2D0E94C228802FBD
:1051D0000E94C228812F0E94C2288D2F0E94C228BF
:1051E00085E9CC2321F087E8C83009F08FEF0E94D1
:1051F000C228CAE00E94CA288F3F11F4C150D1F7DB
:10520000DF91CF911F910F91FF90089581E0089554
:1052100080E00895CF93DF9300D000D0CDB7DEB704
:105220008091A80381111CC08091A9039091AA03C9
:10523000A091AB03B091AC0320E032E04DEA53E023
:10524000BC01CD010E94B42A882319F081E080932B
:10525000A8030F900F900F900F90DF91CF910895BA
:1052600081E0F7CF2F923F924F925F926F927F92A1
:105270008F929F92AF92BF92CF92DF92EF92FF9266
:105280000F931F93CF93DF9300D000D0CDB7DEB73D
:105290006B017C014A0119012114310411F481E0F0
:1052A00030C0560181E0B822260137014A185B0858
:1052B0006108710880E092E08A199B093C822B8288
:1052C0008215930510F49C838B838091A9039091A0
:1052D000AA03A091AB03B091AC0384159505A60574
:1052E000B70509F45CC00E940A29882351F05E9832
:1052F000B301A20181E10E94D4288823C9F05E9AFB
:1053000080E00F900F900F900F90DF91CF911F9141
:105310000F91FF90EF90DF90CF90BF90AF909F9054
:105320008F907F906F905F904F903F902F90089557
:105330000E94CA288E3FE1F70DEA13E01A83098321
:105340000F5F1F4F0E94CA28E981FA818083F5E030
:105350000D3A1F0799F74092A9035092AA03609251
:10536000AB037092AC03B50163557C4F4B815C81FC
:10537000C4010E945E348B819C81880E991E0E941C
:10538000CA280E94CA285E9A0E94CA288B819C81E2
:10539000281A390AC80ED91EE11CF11C7DCFB501AF
:1053A00063557C4F4B815C81C4010E945E34EB816C
:1053B000FC818E0E9F1EEACF0F931F93CF93239AEB
:1053C000259A229A24985E9A83E58CBD8DB58E7FAE
:1053D0008DBD1092A703CAE00E94CA28C150E1F710
:1053E0005E9800E012E040E050E0BA0180E00E94E8
:1053F000D428813049F001501109A9F75E9A8C2F09
:10540000CF911F910F91089540E050E0BA0187E3DA
:105410000E94D42840E050E0BA0189E20E94D428DA
:1054200082FD05C08091A70381608093A70300E0FF
:1054300010E88091A703837040E050E0BA0179F052
:1054400087E30E94D42840E050E0BA0189E20E943C
:10545000D42880FF06C00150110959F7CFCF81E051
:10546000F6CF40E052E060E070E080E10E94D42896
:105470005E9A882311F0C0E0C2CF8CB58C7F8CBDC2
:105480008DB581608DBD8FEF9FEFDC018093A90307
:105490009093AA03A093AB03B093AC0381E08093F5
:1054A000A80320E032E04DEA53E060E070E0CB0179
:1054B0000E943229C1E08111A2CFDDCF2F923F920D
:1054C0004F925F926F927F928F929F92AF92BF9214
:1054D000CF92DF92EF92FF920F931F93CF93DF93C0
:1054E0002B013C015A01E901480187013C2C2D2C7C
:1054F000452B31F1209721F18216930608F1EF2810
:10550000F9F06901F12CE12C9E01A501C301B20162
:105510000E9432298823A1F0232D322DB301A2014C
:10552000C501F8010995882349F04C0C5D1C6E1CDF
:105530007F1C8C1A9D0A8C169D0630F781E001C0F5
:1055400080E0DF91CF911F910F91FF90EF90DF905E
:10555000CF90BF90AF909F908F907F906F905F9013
:105560004F903F902F9008952F923F924F925F92CD
:105570006F927F928F929F92AF92BF92CF92DF9263
:10558000EF92FF920F931F93CF93DF936B017C01F8
:105590004A01E901209709F45BC0560181E0B82275
:1055A000260137014A185B0861087108212C92E036
:1055B000392E2A183B088E012C163D0608F481016D
:1055C0008091A9039091AA03A091AB03B091AC0381
:1055D00084159505A605B705A9F00E940A29811131
:1055E00002C080E036C0A114B104D9F4011582E0F4
:1055F0001807B9F44092A9035092AA036092AB0332
:105600007092AC038DEA881683E09806A9F45E9840
:10561000B301A20188E10E94D428882369F15E9A2F
:10562000E0CF20E032E04DEA53E0C301B2010E9436
:1056300032298111DFCFD5CFA801B401C50183552F
:105640009C4F0E945E341092A8032C163D06F8F27F
:1056500081E0DF91CF911F910F91FF90EF90DF904C
:10566000CF90BF90AF909F908F907F906F905F9002
:105670004F903F902F9008958EEF0E94C2288DEAA0
:10568000A82E83E0B82EF5018FEFA81AB80A808102
:105690000E94C2288DEAA81685E0B806A1F78FEF10
:1056A0000E94C2288FEF0E94C2280E94CA288F3F02
:1056B000E1F70E94CA285E9A800E911EC00ED11E8C
:1056C000E11CF11CC01BD10B81E08093A80362CFC9
:1056D0004F925F926F927F928F929F92AF92BF9202
:1056E000CF92DF92EF92FF920F931F93CF93DF93AE
:1056F0002B013C016A0159014801452B91F480E0DE
:10570000DF91CF911F910F91FF90EF90DF90CF909D
:10571000BF90AF909F908F907F906F905F904F90D1
:10572000089589018114910451F3A114B10419F071
:105730000115110549F09701B301A201C601F40159
:105740000995EC01009711F481E0DACFA114B104BE
:1057500019F00817190798F29E01A601C301B201BA
:105760000E94B42A882359F24C0E5D1E611C711CE4
:105770000C1B1D0BDACF8F929F92AF92BF92EF92CC
:10578000FF920F931F93CF93DF93EC01892B81F04E
:1057900089E1FE0111928A95E9F75E9840E050E0B8
:1057A000BA018AE00E94D428F82E882319F05E9A64
:1057B000F12C24C00E94CA288E3FE1F710E000E0DF
:1057C00048EFE42E0E94CA28482FE02F0F3030F413
:1057D000F0E0E954F84C0C943E3488830F5F1F4F7F
:1057E0000231110579F740E050E0BA0189E00E94EA
:1057F000D428082F882309F445C05E9A8F2DDF91A5
:10580000CF911F910F91FF90EF90BF90AF909F901D
:105810008F900895FE01E00FF11F8083DFCFFE011E
:10582000E00FF11F8183DACF8A87D8CF50E070E094
:1058300060E02E2D2003C001219F900D1124805A7D
:105840009F4F04C0440F551F661F771F8A95D2F7DC
:105850008B859C85AD85BE85842B952BA62BB72B80
:105860008B879C87AD87BE87B9CF4295407F4F8796
:10587000B5CF982F92959F708F85892B8F874F700A
:10588000488BACCF0E94CA288E3FE1F710E0E12C94
:10589000812C912C5401FF24F3940E94CA281123D7
:1058A00089F01E30B1F4282F30E086FDFD8A85FD99
:1058B000FE8A84FDFF8AC901959587959595879500
:1058C0008370888F1F5F123141F75E9AFF24F39433
:1058D00095CF1830D1F148F4163029F1173061F125
:1058E000153081F78F70E82EEDCF1930C9F11A30DD
:1058F00049F7881F8827881F082B402F4E0D5527F2
:10590000551FCA010296A501940104C0220F331F3E
:10591000441F551F8A95D2F7DA01C901898B9A8BEA
:10592000AB8BBC8BCFCF837090E0B0E0A0E088243D
:10593000982EA92EBA2EC6CF882A82E0880C991CF0
:10594000AA1CBB1C8A95D1F7BDCF829586958695FA
:105950008370882A3FEF831A930AA30AB30AB2CF4F
:10596000880F082F0670AECFCDB7DEB7CA55D10964
:105970000FB6F894DEBF0FBECDBF3898409A569A46
:105980005E9A0E9416050E94A9161092DE0580EF0D
:1059900090E09093F3058093F2051092D805109251
:1059A000D7051092FB051092FA058BE790E09093D3
:1059B000F0058093EF0581E090E09093DC05809303
:1059C000DB051092DD051092AD05109200061092D5
:1059D000C6051092E3051092E4051092E5051092B9
:1059E000E6051092B9021092B8021092C00510920A
:1059F000BF0585E99CE8A1E0B0E08093B0059093F5
:105A0000B105A093B205B093B30582E08093CF05B2
:105A1000109200011092F1050E94CC178CE990E0E1
:105A200090938900809388008091810088608093A2
:105A3000810080916F00826080936F00809181006F
:105A400085608093810080917C00806480937C00DD
:105A500080917A00876880937A00789484E00E942D
:105A6000430583B7817F83BF0E94DC29811104C075
:105A700089EA91E00E94A81700E028E63BE244EBA7
:105A80005AE26EE57AE282E399E20E942628909338
:105A9000D5058093D405892BA9F40FEF28E63BE2C6
:105AA00044EB5AE26EE57AE282E399E20E9426280C
:105AB0009093D5058093D405892B21F48FE891E04C
:105AC0000E94A8178091D4059091D5050E94C81D09
:105AD0009093BD058093BC05892B21F484E791E068
